:0400000013EF05F005
:08000800046ED8CF05F0E0CF33
:1000100006F00001E9CF0CF0EACF07F0E1CF08F0DD
:10002000E2CF09F0D9CF0AF0DACF0BF0F3CF12F01C
:10003000F4CF13F0FACF14F0F5CF15F0F6CF16F099
:10004000F7CF17F000C00EF001C00FF002C010F0A3
:1000500003C011F09DA030EF00F09EB077EF01F0EB
:100060009DAA36EF00F09EBAC9EF01F00EC000F075
:100070000FC001F010C002F011C003F00CC0E9FF86
:1000800007C0EAFF078E08C0E1FF09C0E2FF0AC00F
:10009000D9FF0BC0DAFF12C0F3FF13C0F4FF14C086
:1000A000FAFF15C0F5FF16C0F6FF17C0F7FF0450A2
:1000B00006C0E0FF05C0D8FF1000F76ACA0FF66E51
:1000C000000EF7220900F550120000C1814001C066
:1000D000804101C0804100C1814001C0804100C118
:1000E000814000C1814001C0804101C0804100C108
:1000F000814000C1814001C0804100C1814001C0F8
:10010000804101C0804100C1814001C0804100C1E7
:10011000814000C1814001C0804100C1814001C0D7
:10012000804101C0804100C1814000C1814001C0C7
:10013000804101C0804100C1814001C0804100C1B7
:10014000814000C1814001C0804101C0804100C1A7
:10015000814000C1814001C0804100C1814001C097
:10016000804101C0804100C1814000C1814001C087
:10017000804101C0804100C1814001C0804100C177
:10018000814000C1814001C0804100C1814001C067
:10019000804101C0804100C1814001C0804100C157
:1001A000814000C1814001C0804101C0804100C147
:1001B000814000C1814001C0804100C1814001C037
:1001C000804101C0804100C18140F76ADA0FF66EBC
:1001D000010EF7220900F550120000C0C101C3034F
:1001E00002C2C60607C705C5C404CC0C0DCD0FCF8F
:1001F000CE0E0ACACB0BC90908C8D81819D91BDBFF
:10020000DA1A1EDEDF1FDD1D1CDC14D4D515D7174E
:1002100016D6D21213D311D1D010F03031F133F3FE
:10022000F23236F6F737F53534F43CFCFD3DFF3F4E
:100230003EFEFA3A3BFB39F9F83828E8E929EB2B7E
:100240002AEAEE2E2FEF2DEDEC2CE42425E527E70E
:10025000E62622E2E323E12120E0A06061A163A37E
:10026000A26266A6A767A56564A46CACAD6DAF6F0E
:100270006EAEAA6A6BAB69A9A86878B8B979BB7B7E
:100280007ABABE7E7FBF7DBDBC7CB47475B577B7CE
:10029000B67672B2B373B17170B0509091519353FE
:1002A000529296565797559594549C5C5D9D5F9FCE
:1002B0009E5E5A9A9B5B99595898884849894B8BFE
:1002C0008A4A4E8E8F4F8D4D4C8C4484854587478E
:1002D00046868242438341818040F76AEA0FF66E88
:1002E000020EF7220900F5501200280C01065F2AC1
:1002F0009E9036EF00F09EAAFED7ABCF60F0AECF57
:1003000001F0080E7F6E7E6AAECF00F000507E1ABC
:1003100000327F2EFBD7010E7E14601A60A202D03D
:10032000AB98AB8812007FC000F080C001F0026A79
:10033000D890003601360236D890003601360236A3
:10034000D890003601360236D89000360136023693
:10035000D89000360136023602C05FF001C0CFFFF0
:1003600000C0CEFF12001A927EB01A82806B7F6AA4
:10037000DADF120063507E187F6E036A7F509DDEC5
:10038000016E62500118636E036A7F501EDF626E59
:100390001200B1DF01C07DF01AB028D0615208E12F
:1003A000636862687DC01BF0612A1C6A1E6A18D0EF
:1003B000612C04D07DC01DF0612A12D0615002086A
:1003C0000FE11C503F0802E23F0E1C6E036A1C50F6
:1003D0001F0FE96E000E0320EA6E7DC0EFFF1C2A9E
:1003E000010E7E6EC0DF7DC07EF0C4DF9E9A36EFC8
:1003F00000F053797374656D205374617274656491
:1004000021009EAA08D0196AF2BE198EF29E73DFEF
:1004100019BEF28EF6D7AE5095948C949D8A120038
:100420000090EFDFC00EF21242EF05F0EA6A700EA4
:10043000E96EEF500DE0020E016E006A002EFED74D
:10044000012EFBD7970E006E002EFED7EF2EF3D7AE
:10045000120077B002D08A9801D08A88939877B238
:1004600002D08A9A01D08A8A939A77B402D08A9C61
:1004700001D08A8C939C77B602D08A9E01D08A8E56
:10048000939E000093928A8200D000D093928A9229
:100490001200786A93928A8200D09388789081B80B
:1004A0007880938A789281BA7882938C789481BC90
:1004B0007884938E789681BE788693928A9200D0C3
:1004C00078C001F0120093948A840000E2DF01C03A
:1004D00077F0DFDF01C076F07738006EF00E00169F
:1004E00000507610016E78EF02F093968A96EBD763
:1004F00001C076F001BEFBD7745203E093968A8662
:1005000002D093968A96000093948A940000939266
:100510008A927538766E0F0E761676C077F099DF70
:1005200075500F0B766E776E94DF1200010E646EBD
:1005300093968A9693948A9493928A92230E706EDD
:1005400075DF6D6A6D50020808E3030E776E81DF78
:10055000050E706E6BDF6D2AF5D7020E776E79DFB0
:100560006D6A6D50030809E3036A6D50B6DE6E6E66
:10057000746A756EBADF6D2AF4D743EF05F07150D7
:10058000010A07E0030A07E0010A08E0070A09E098
:100590000BD0726A0AD0400E726E07D0140E726EC3
:1005A00004D0540E726E01D0726A010E705C722615
:1005B00072508009736E746A756E97DF12006F5007
:1005C0000C0A05E0060A0DE0020A12E016D0746A71
:1005D000010E756E8ADF010E646E020E706E26DFEC
:1005E00011D0642A010E706E64C071F0C8DF0AD0A9
:1005F000746A100E756E79DF05D0010E746E6FC0CF
:1006000075F073DF12000900F5520CE0F6CF6DF0C3
:10061000F7CF6EF0F5CF6FF0D2DF6DC0F6FF6EC092
:10062000F7FFF1D74FEF05F06EBE0FD00F0E006E43
:100630006D3800160A0E005C03E2300E002602D070
:100640006E50002600C06FF0BADF0F0E6D160A0E56
:100650006D5C02E2300E02D06E9E6E506D266DC053
:100660006FF0ADDF1200080E016E7C6A7BC000F0F7
:1006700000507C1A0032012EFBD79EA8FED7FE0E3A
:10068000AC167CB0AC807BC0ADFF4AEF03F07AC003
:100690007BF0E9D7196AF2BE198EF29E7AC07EF01D
:1006A00069DE19BEF28E450E006E002EFED71200D6
:1006B000636862681A909D9AF20E006E002EFED753
:1006C000000078C07AF0E3DF79C07AF0E0DF120052
:1006D00063C079F062C078F079C07AF0D8DF78C072
:1006E0007AF0D5DFACA2FED7F20E006E002EFED758
:1006F000000087DE63686268120070508009736EC4
:100700006FC078F0796ED4DF72C07AF0C0DFE0DFBE
:10071000120072C078F0030E796ECADF73C07AF0EF
:10072000B6DF766A7350765C1FE275C003F074C062
:10073000E9FF75C0EAFFECCF7AF0ED52EFCF77F02A
:10074000A6DF75C003F074C0E9FF75C0EAFFECCF07
:1007500078F0ED52EFCF7AF09ADF020E7426D8B01F
:10076000752A020E7626DED7B3DF17EF04F073C0CA
:1007700078F0060E796E9CDF75C07AF088DF74C061
:100780007AF085DF77C07AF082DF76C07AF07FDF9B
:100790009FDF46EF04F073C078F0100E796E88DFAB
:1007A00075C07AF074DF74C07AF071DF77C07AF0C8
:1007B0006EDF76C07AF06BDF8BDFA4EF04F01B50A6
:1007C0000508D8A4CAD095948C841D50030A05E06E
:1007D000050A2EE0160A5BE0B8D01F5209E121524B
:1007E00007E12050070804E320502224080809E20A
:1007F000050E6F6E716A1DC070F0020E726E7DDFA5
:1008000016D01D50030813E1D89022346F6ED89093
:100810002034650F706E716AD8B0712A050E726E41
:100820006FC073F071C075F070C074F072D795D05E
:100830001F5203E12050070809E2050E6F6E716A2E
:100840001DC070F0020E726E58DF20D0D890203498
:10085000036A650FE96E000E0320EA6E21C0ECFF0B
:10086000ED5222C0EFFF1FC070F020C06FF021C01A
:1008700072F022C071F0050E736E1FC075F020C0BB
:1008800074F021C077F022C076F071D766D01F5285
:1008900009E1215207E12050070804E320502224F7
:1008A000080809E2050E6F6E716A1DC070F0020E35
:1008B000726E23DF49D06D6A050E6E6ED8902330BC
:1008C0006D5C2FE2D8906D34036A650F016E000EE7
:1008D000032201C06FF003C070F0036A6E501F0F57
:1008E000E96E000E0320EA6EEFCF71F0010E6E2468
:1008F000036A1F0FE96E000E0320EA6EEFCF72F05D
:1009000071C074F072C073F070C0EAFF01C0E9FFFB
:1009100071C0ECFFED5272C0EFFF6D2A020E6E2621
:10092000CDD71FC070F020C06FF021C072F022C080
:1009300071F0050E736E1FC075F020C074F021C0F9
:1009400077F022C076F027D708D0050E6F6E716A57
:100950001DC070F0010E726ED0DE95948C9481EF04
:1009600005F05FC001F0CE50CFCF03F09D90026E36
:100970005F50015C04E0CE50CFCF03F001D00250B5
:10098000006E03C001F05FC002F00232013200329B
:1009900002320132003202320132003202320132BE
:1009A00000320232013200329D80F5EF04F06150D6
:1009B00002080AE1625208E1635206E11AB004D06B
:1009C000020E1C5E1A8001D01A9063686268616A28
:1009D000196AF2BE198EF29E7E6AC5DC19BEF28ECD
:1009E000FFEF04F01AA20BD0BCD701C06EF000C01C
:1009F0006DF06E5203E16D50280801E2D8D702EF86
:100A000005F0F0D71AB004D0000E016E0AD006D05F
:100A10001DAE04D01FC01EF0010E1C6E1A90010EF8
:100A2000016E82EF05F0F86AD09E078E700ED36ECD
:100A30009B6AD3501A905F6ACD90B50ECD6ECF6A87
:100A4000CE6A00009E909D80606AB8960C0EAF6ED4
:100A5000E20EAC6ED00EAB6E000000001A92616A1E
:100A60006C6A6B6AC150C00B0F09C16E070EB46E81
:100A7000010E656E666A020E676E686A030E696E25
:100A80006A6ACED453D5640E706ED0DC010E706EDF
:100A9000716E75DDF20EF66E030EF76EB4D5010EB3
:100AA000706E020E716E6BDD66C06DF0370E6E6E8D
:100AB000BBDD65C06DF0370E6E6EB6DD010E706E7B
:100AC000030E716E5CDD68C06DF0370E6E6EACDDCE
:100AD00067C06DF0370E6E6EA7DD010E706E040EEE
:100AE000716E4DDD6AC06DF0370E6E6E9DDD69C0B2
:100AF0006DF0370E6E6E98DD210E006E002EFED763
:100B00005ED67FD701520DE1652C04D0665202E11A
:100B100094988B88655204E1665202E194988B9810
:060B2000F0D7BDD7030071
:020000040030CA
:0E00000000C81E1E008781000FC00FE00F40D9
:00000001FF
;PIC18F4520
;CRC=2CB6  CREATED="20-Kas-22 18:16"
